S01700004763634170706C69636174696F6E312E737265635B
S11300000C942A000C9447000C9447000C9447006D
S11300100C9447000C9447000C9447000C94470040
S11300200C9449000C9447000C9447000C9447002E
S11300300C9447000C9447000C9447000C94470020
S11300400C9447000C9447000C9447000C94470010
S11300500C94470011241FBECFE5D4E0DEBFCDBF12
S113006010E0A0E6B0E0ECEAF5E002C005900D92E5
S1130070A236B107D9F720E0A2E6B0E001C01D9294
S1130080A037B207E1F70E9409010C94D4020C9442
S113009000001F920F920FB60F9211248F939F931B
S11300A08091620090916300019690936300809325
S11300B062009F918F910F900FBE0F901F90189523
S11300C0959885E08A95F1F70000959A8AE18A95DA
S11300D0F1F700C095981DBC1CBC81E48EBD80E284
S11300E088BF84E088BF08B605FEFDCF1DBC1CBCDC
S11300F081E08EBD80E288BF84E088BF10926300F7
S11301001092620008B605FEFDCF66B577B5CB0147
S1130110A0E0B0E08093640090936500A093660033
S1130120B0936700072E000C880B990B0E944802BD
S113013029E23CE349EE53E40E949E010E9410022E
S11301407093690060936800089588B38C6088BBDD
S1130150089588B3837C88BB08950E94A900C49A3B
S11301602FEF89E698E1215080409040E1F700C0EC
S11301700000C49808950E94A900C59A2FEF89E64B
S113018098E1215080409040E1F700C00000C598FC
S113019008950E94A90010926B0010926A0088B31F
S11301A0806388BB80916A0090916B000196909364
S11301B06B0080936A00449794F388B38F7C88BB68
S11301C0089581E490E09BBD8ABD2FEF89E698E114
S11301D0215080409040E1F700C000000E94600080
S11301E08FEA90E09BBD8ABD08958CE291E09BBDAF
S11301F08ABD2FEF89E698E1215080409040E1F7D5
S113020000C000000E9460008FEA90E09BBD8ABDA0
S113021008958FEF87BB8EE081BB1DBC1CBC83ECB3
S113022099E097BD86BD82E88FBD8BE18EBD8FEAD4
S113023090E09BBD8ABD88B3837C88BB969A2FEFE0
S113024089E698E1215080409040E1F700C0000029
S1130250789484E089BF1FBC1092690010926800F2
S11302600E94600080916800909169002091600074
S1130270309161002817390714F0892B91F40E94FA
S11302806000809168009091690020916000309135
S113029061002817390714F0892BF1F60E94A50094
S11302A0DBCF0E94A9000E94F50080916800909124
S11302B0690090936F0080936E000E94E10080912A
S11302C068009091690090936D0080936C008A306F
S11302D0910554F420916E0030916F002A3031055D
S11302E01CF40E94C900B8CF20916E0030916F00B9
S11302F0281739075CF40E94AD002FEF89E698E1D6
S1130300215080409040E1F700C0000020916C0033
S113031030916D0080916E0090916F00281739071D
S11303200CF09ACF0E94BB002FEF89E698E1215090
S113033080409040E1F700C000008ECF0E94B201DF
S11303400C949A020E94930258F00E948C0240F08E
S113035029F45F3F29F00C94830251110C94CE02CE
S11303600C9489020E94AB0268F39923B1F35523DC
S113037091F3951B550BBB27AA27621773078407B4
S113038038F09F5F5F4F220F331F441FAA1FA9F34A
S113039035D00E2E3AF0E0E832D091505040E69538
S11303A0001CCAF72BD0FE2F29D0660F771F881F99
S11303B0BB1F261737074807AB07B0E809F0BB0B8C
S11303C0802DBF01FF2793585F4F3AF09E3F5105A0
S11303D078F00C9483020C94CE025F3FE4F3983ED1
S11303E0D4F3869577956795B795F7959F5FC9F789
S11303F0880F911D9695879597F90895E1E0660F0A
S1130400771F881FBB1F621773078407BA0720F082
S1130410621B730B840BBA0BEE1F88F7E0950895EB
S11304200E9417026894B1110C94CE0208950E94A0
S1130430B30288F09F5798F0B92F9927B751B0F0BD
S1130440E1F0660F771F881F991F1AF0BA95C9F754
S113045014C0B13091F00E94CD02B1E008950C9423
S1130460CD02672F782F8827B85F39F0B93FCCF3D6
S1130470869577956795B395D9F73EF490958095D1
S1130480709561957F4F8F4F9F4F0895E89409C0F1
S113049097FB3EF490958095709561957F4F8F4FB3
S11304A09F4F9923A9F0F92F96E9BB279395F695C9
S11304B0879577956795B795F111F8CFFAF4BB0F47
S11304C011F460FF1BC06F5F7F4F8F4F9F4F16C0AB
S11304D0882311F096E911C0772321F09EE8872F35
S11304E0762F05C0662371F096E8862F70E060E0F1
S11304F02AF09A95660F771F881FDAF7880F96956A
S1130500879597F9089597F99F6780E870E060E010
S113051008959FEF80EC089500240A941616170698
S113052018060906089500240A94121613061406E0
S113053005060895092E0394000C11F4882352F043
S1130540BB0F40F4BF2B11F460FF04C06F5F7F4FFB
S11305508F4F9F4F089557FD9058440F551F59F0E2
S11305605F3F71F04795880F97FB991F61F09F3F9C
S113057079F087950895121613061406551FF2CFC5
S11305804695F1DF08C0161617061806991FF1CF15
S113059086957105610508940895E894BB2766273C
S10F05A07727CB0197F90895F894FFCF5A
S10505AC0F003A
S9030000FC
